S2841F20000000FFFFFFFFFFFFFFFFFFFFFFFFFFFF000000000000000000000000000000000000000000000000000400000000000000000000000100000000000000000000000000000000000000000000000000000000000000000000000000000000000000000000000000000000000000000000000186A0000186A00003D3BB0001000164
S2841F20800000039800002710000A0000070804B0070804B0070804B0070804B0070804B000000000000000000000000000000000000000000000000000000000000000000000000000000000039803E803E803E803E803E803E803E803E803E80000000000000000000000000000000000000000000003E80064001403E8000000000000E5
S2841F210000000000000000000000000000000000000000000000000000000000000000000000000000000000000000000000000000000000000000000000000000000000000000000000000000000000000000000000000000000000000000000000000000000000000000000000000000000000000000000000000000000000000000003B
S2841F21800000000000000000000000000000000000000000000000000000000000000000000000000000000000000000000000000000000000000000000000000000000000000000000000000000000000000000000000000000000000000000000000000000000000000000000000000000000000000000000000000000000000000000BB
S2841F220000000000000000000000000000000000000000000000000000000000000000000000000000000000000000000000000000000000000000000000000000000000FFFFFFFFFFFFFFFF0000908800009088000090880000908802EE000005DC000002EE00000000000100010001000100010001000100010001000100010001000114
S2841F2280000100010001000000C80000FFFFFFFF00000000000000000000000000000000000000000000000000000000FFFFFFFF000493E000020001038403E800002710000A000006B806B806B806B806B806B806B806B806B806B8000000000000000000000000000000000000000000000000000000000000000000000000000000005E
S2841F230003E803E803E803E803E803E803E803E803E803E80000000000000000000000000000000000000000FFFFFFFF0064001403E8FFFFFFFFFFFF0000000000040001038403E800002710000A00000708070807080708070807080708070807080708000000000000000000000000000000000000000000000000000000000000000064
S2841F2380000000000000000003E803E803E803E803E803E803E803E803E803E80000000000000000000000000000000000000000FFFFFFFF0064001403E8FFFFFFFFFFFF00000000000100010000000000000000000A0000000000000000000000000000000000000000000000000000000000000000000000000000000000000000000026
S2841F240000000000000000000000000000000000000A000A000A000A000A000A000A000A000A000A0000000000000000000000000000000000000000FFFFFFFF0064001403E800640000000006400000076C000000000000FFFFFFFFFFFFFFFFFFFFFFFFFFFFFFFFFFFFFFFFFFFFFFFFFFFFFFFFFFFFFFFFFFFFFFFFFFFFFFFFFFFFFFFF84
S2841F24800000000000000000000000000000000000000000000000000000000000000000000000000000000000000000000000000000000000000000000000000000000000000000000000000000000000000000000000000000000000000000000000000000000000000000000000000000000000000000000000000000000000000000B8
S2841F2500FFFFFFFFFFFFFFFFFFFFFFFFFFFFFFFFFFFFFFFFFFFFFFFFFFFFFFFFFFFFFFFF000000000000000000000000000000000000000000000000000000000000000000000000000000000000000000000000FFFFFFFFFFFFFFFFFFFFFFFFFFFFFFFFFFFFFFFFFFFFFFFFFFFFFFFFFFFFFFFF0000000000000000000000000000000077
S2841F25800000000000000000000000000000000000000000000000000000000000000000000000000000000000000000000000000000000000000000000000000000000000000000000000000BB8000000080006000000000000000000960000012C00000096000002EE000005DC000002EE000000000000000000000000000000000000CC
S2841F26000000000000000000000000000000000000000000FFFFFFFFFFFFFFFFFFFFFFFFFFFFFFFFFFFFFFFFFFFFFFFFFFFFFFFFFFFFFFFFFFFFFFFFFFFFFFFFFFFFFFFFFFFFFFFFFFFFFFFFFFFFFFFFFFFFFFFFFFFFFFFFFFFFFFFFFFFFFFFFFFFFFFFFFFFFFFFFFFFFFFFFFFFFFFFFFFFFFFFFFFFFFFFFFFFFFFFFFFFFFFFFFFFFFFFFA2
S2841F2680FFFFFFFFFFFFFFFFFFFFFFFFFFFFFFFFFFFFFFFFFFFFFFFFFFFFFFFFFFFFFFFFFFFFFFFFFFFFFFFFFFFFFFFFFFFFFFFFFFFFFFFFFFFFFFFFFFFFFFFFFFFFFFFFFFFFFFFFFFFFFFFFFFFFFFFFFFFFFFFFFFFFFFFFFFFFFFFFFFFFFFFFFFFFFFFFFFFFFFFFFFFFFFFFFFFFFFFFFFFFFFFFFFFFFFFFFFFFFFFFFFFFFFFFFFFFFFFF36
S2841F27004F42533135302D4C202020202020202020202020202020202020202020202020FFFFFFFFFFFFFFFFFFFFFFFFFFFFFFFF00000000000000000000000000000000FFFFFFFFFFFFFFFFFFFFFFFFFFFFFFFFFFFFFFFFFFFFFFFFFFFFFFFFFFFFFFFFFFFFFFFFFFFFFFFFFFFFFFFFFFFFFFFFFFFFFFFFFFFFFFFFFFFFFFFFFFFFFFFF92
S2841F2780FFFFFFFFFFFFFFFFFFFFFFFFFFFFFFFFFFFFFFFFFFFFFFFFFFFFFFFFFFFFFFFFFFFFFFFFFFFFFFFFFFFFFFFFFFFFFFFFFFFFFFFFFFFFFFFFFFFFFFFFFFFFFFFFFFFFFFFFFFFFFFFFFFFFFFFFFFFFFFFFFFFFFFFFFFFFFFFFFFFFFFFFFFFFFFFFFFFFFFFFFFFFFFFFFFFFFFFFFFFF00000000000000000000000000004760B89F25
S2841F28000000FFFFFFFFFFFFFFFFFFFFFFFFFFFF000000000000000000000000000000000000000000000000000400000000000000000000000400000000000000000000000000000000000000000000000000000000000000000000000000000000000000000000000000000000000000000000000186A0000186A00003D3BB0001000159
S2841F2880000003E800002710000A0000070804B0070804B0070804B0070804B0070804B00000000000000000000000000000000000000000000000000000000000000000000000000000000003E803E803E803E803E803E803E803E803E803E80000000000000000000000000000000000000000000003E80064001403E80000000000003D
S2841F2900000000000000000000000000000000000000000000000000000000000000000000000000000000000000000000000000000000000000000000000000000000000000000000000000000000000000000000000000000000000000000000000000000000000000000000000000000000000000000000000000000000000000000033
S2841F29800000000000000000000000000000000000000000000000000000000000000000000000000000000000000000000000000000000000000000000000000000000000000000000000000000000000000000000000000000000000000000000000000000000000000000000000000000000000000000000000000000000000000000B3
S2841F2A0000000000000000000000000000000000000000000000000000000000000000000000000000000000000000000000000000000000000000000000000000000000FFFFFFFFFFFFFFFF0000908800009088000090880000908802EE000005DC000002EE0000000000010001000100010001000100010001000100010001000100010C
S2841F2A80000100010001000000C80000FFFFFFFF00000000000000000000000000000000000000000000000000000000FFFFFFFF000493E000020001038403E800002710000A000006B806B806B806B806B806B806B806B806B806B80000000000000000000000000000000000000000000000000000000000000000000000000000000056
S2841F2B0003E803E803E803E803E803E803E803E803E803E80000000000000000000000000000000000000000FFFFFFFF0064001403E8FFFFFFFFFFFF00030D40000400010239035200002710000A000007080708070807080708070807080708070807080000000000000000000000000000000000000000000000000000000000000000EE
S2841F2B800000000000000000035203E803E803E803E803E803E803E803E803E80000000000000000000000000000000000000000FFFFFFFF0064001403E8FFFFFFFFFFFF00000000000100010000000000000000000A00000000000000000000000000000000000000000000000000000000000000000000000000000000000000000000B4
S2841F2C0000000000000000000000000000000000000A000A000A000A000A000A000A000A000A000A0000000000000000000000000000000000000000FFFFFFFF0064001403E800640000000006400000076C000000000000FFFFFFFFFFFFFFFFFFFFFFFFFFFFFFFFFFFFFFFFFFFFFFFFFFFFFFFFFFFFFFFFFFFFFFFFFFFFFFFFFFFFFFFF7C
S2841F2C800000000000000000000000000000000000000000000000000000000000000000000000000000000000000000000000000000000000000000000000000000000000000000000000000000000000000000000000000000000000000000000000000000000000000000000000000000000000000000000000000000000000000000B0
S2841F2D00FFFFFFFFFFFFFFFFFFFFFFFFFFFFFFFFFFFFFFFFFFFFFFFFFFFFFFFFFFFFFFFF000000000000000000000000000000000000000000000000000000000000000000000000000000000000000000000000FFFFFFFFFFFFFFFFFFFFFFFFFFFFFFFFFFFFFFFFFFFFFFFFFFFFFFFFFFFFFFFF000000000000000000000000000000006F
S2841F2D800000000000000000000000000000000000000000000000000000000000000000000000000000000000000000000000000000000000000000000000000000000000000000000000000BB8000000080006000000000000000000960000012C00000096000002EE000005DC000002EE000000000000000000000000000000000000C4
S2841F2E000000000000000000000000000000000000000000FFFFFFFFFFFFFFFFFFFFFFFFFFFFFFFFFFFFFFFFFFFFFFFFFFFFFFFFFFFFFFFFFFFFFFFFFFFFFFFFFFFFFFFFFFFFFFFFFFFFFFFFFFFFFFFFFFFFFFFFFFFFFFFFFFFFFFFFFFFFFFFFFFFFFFFFFFFFFFFFFFFFFFFFFFFFFFFFFFFFFFFFFFFFFFFFFFFFFFFFFFFFFFFFFFFFFFFF9A
S2841F2E80FFFFFFFFFFFFFFFFFFFFFFFFFFFFFFFFFFFFFFFFFFFFFFFFFFFFFFFFFFFFFFFFFFFFFFFFFFFFFFFFFFFFFFFFFFFFFFFFFFFFFFFFFFFFFFFFFFFFFFFFFFFFFFFFFFFFFFFFFFFFFFFFFFFFFFFFFFFFFFFFFFFFFFFFFFFFFFFFFFFFFFFFFFFFFFFFFFFFFFFFFFFFFFFFFFFFFFFFFFFFFFFFFFFFFFFFFFFFFFFFFFFFFFFFFFFFFFFF2E
S2841F2F004F42533135302D53202020202020202020202020202020202020202020202020FFFFFFFFFFFFFFFFFFFFFFFFFFFFFFFF00000000000000000000000000000000FFFFFFFFFFFFFFFFFFFFFFFFFFFFFFFFFFFFFFFFFFFFFFFFFFFFFFFFFFFFFFFFFFFFFFFFFFFFFFFFFFFFFFFFFFFFFFFFFFFFFFFFFFFFFFFFFFFFFFFFFFFFFFFF83
S2841F2F80FFFFFFFFFFFFFFFFFFFFFFFFFFFFFFFFFFFFFFFFFFFFFFFFFFFFFFFFFFFFFFFFFFFFFFFFFFFFFFFFFFFFFFFFFFFFFFFFFFFFFFFFFFFFFFFFFFFFFFFFFFFFFFFFFFFFFFFFFFFFFFFFFFFFFFFFFFFFFFFFFFFFFFFFFFFFFFFFFFFFFFFFFFFFFFFFFFFFFFFFFFFFFFFFFFFFFFFFFFFF000000000000000000000000000052D6AD291D
S2841F30000000FFFFFFFFFFFFFFFFFFFFFFFFFFFF000000000000000000000000000000000000000000000000000400000000000000000000000200000000000000000000000000000000000000000000000000000000000000000000000000000000000000000000000000000000000000000000000186A0000186A00003D3BB0001000153
S2841F3080000003E800002710000A0000070804B0070804B0070804B0070804B0070804B00000000000000000000000000000000000000000000000000000000000000000000000000000000003E803E803E803E803E803E803E803E803E803E80000000000000000000000000000000000000000000003E80064001403E800000000000035
S2841F310000000000000000000000000000000000000000000000000000000000000000000000000000000000000000000000000000000000000000000000000000000000000000000000000000000000000000000000000000000000000000000000000000000000000000000000000000000000000000000000000000000000000000002B
S2841F31800000000000000000000000000000000000000000000000000000000000000000000000000000000000000000000000000000000000000000000000000000000000000000000000000000000000000000000000000000000000000000000000000000000000000000000000000000000000000000000000000000000000000000AB
S2841F320000000000000000000000000000000000000000000000000000000000000000000000000000000000000000000000000000000000000000000000000000000000FFFFFFFFFFFFFFFF0000908800009088000090880000908802EE000005DC000002EE00000000000100010001000100010001000100010001000100010001000104
S2841F3280000100010001000000C80000FFFFFFFF00000000000000000000000000000000000000000000000000000000FFFFFFFF00030D4000020001023103E800002710000A000006B806B806B806B806B806B806B806B806B806B800000000000000000000000000000000000000000000000000000000000000000000000000000000C9
S2841F330003E803E803E803E803E803E803E803E803E803E80000000000000000000000000000000000000000FFFFFFFF03E8001403E8FFFFFFFFFFFF0000000000040001038403E800002710000A000007080708070807080708070807080708070807080000000000000000000000000000000000000000000000000000000000000000CD
S2841F3380000000000000000003E803E803E803E803E803E803E803E803E803E80000000000000000000000000000000000000000FFFFFFFF0064001403E8FFFFFFFFFFFF00000000000100010000000000000000000A0000000000000000000000000000000000000000000000000000000000000000000000000000000000000000000016
S2841F340000000000000000000000000000000000000A000A000A000A000A000A000A000A000A000A0000000000000000000000000000000000000000FFFFFFFF0064001403E800640000000006400000076C000000000000FFFFFFFFFFFFFFFFFFFFFFFFFFFFFFFFFFFFFFFFFFFFFFFFFFFFFFFFFFFFFFFFFFFFFFFFFFFFFFFFFFFFFFFF74
S2841F34800000000000000000000000000000000000000000000000000000000000000000000000000000000000000000000000000000000000000000000000000000000000000000000000000000000000000000000000000000000000000000000000000000000000000000000000000000000000000000000000000000000000000000A8
S2841F3500FFFFFFFFFFFFFFFFFFFFFFFFFFFFFFFFFFFFFFFFFFFFFFFFFFFFFFFFFFFFFFFF000000000000000000000000000000000000000000000000000000000000000000000000000000000000000000000000FFFFFFFFFFFFFFFFFFFFFFFFFFFFFFFFFFFFFFFFFFFFFFFFFFFFFFFFFFFFFFFF0000000000000000000000000000000067
S2841F35800000000000000000000000000000000000000000000000000000000000000000000000000000000000000000000000000000000000000000000000000000000000000000000000000BB8000000080006000000000000000000960000012C00000096000002EE000005DC000002EE000000000000000000000000000000000000BC
S2841F36000000000000000000000000000000000000000000FFFFFFFFFFFFFFFFFFFFFFFFFFFFFFFFFFFFFFFFFFFFFFFFFFFFFFFFFFFFFFFFFFFFFFFFFFFFFFFFFFFFFFFFFFFFFFFFFFFFFFFFFFFFFFFFFFFFFFFFFFFFFFFFFFFFFFFFFFFFFFFFFFFFFFFFFFFFFFFFFFFFFFFFFFFFFFFFFFFFFFFFFFFFFFFFFFFFFFFFFFFFFFFFFFFFFFFF92
S2841F3680FFFFFFFFFFFFFFFFFFFFFFFFFFFFFFFFFFFFFFFFFFFFFFFFFFFFFFFFFFFFFFFFFFFFFFFFFFFFFFFFFFFFFFFFFFFFFFFFFFFFFFFFFFFFFFFFFFFFFFFFFFFFFFFFFFFFFFFFFFFFFFFFFFFFFFFFFFFFFFFFFFFFFFFFFFFFFFFFFFFFFFFFFFFFFFFFFFFFFFFFFFFFFFFFFFFFFFFFFFFFFFFFFFFFFFFFFFFFFFFFFFFFFFFFFFFFFFFF26
S2841F37004F42533135302D53202020202020202020202020202020202020202020202020FFFFFFFFFFFFFFFFFFFFFFFFFFFFFFFF00000000000000000000000000000000FFFFFFFFFFFFFFFFFFFFFFFFFFFFFFFFFFFFFFFFFFFFFFFFFFFFFFFFFFFFFFFFFFFFFFFFFFFFFFFFFFFFFFFFFFFFFFFFFFFFFFFFFFFFFFFFFFFFFFFFFFFFFFFF7B
S2841F3780FFFFFFFFFFFFFFFFFFFFFFFFFFFFFFFFFFFFFFFFFFFFFFFFFFFFFFFFFFFFFFFFFFFFFFFFFFFFFFFFFFFFFFFFFFFFFFFFFFFFFFFFFFFFFFFFFFFFFFFFFFFFFFFFFFFFFFFFFFFFFFFFFFFFFFFFFFFFFFFFFFFFFFFFFFFFFFFFFFFFFFFFFFFFFFFFFFFFFFFFFFFFFFFFFFFFFFFFFFFF0000000000000000000000000000C3983C6715
S2841F38000000FFFFFFFFFFFFFFFFFFFFFFFFFFFF000000000000000000000000000000000000000000000000000400000000000000000000000400000000000000000000000000000000000000000000000000000000000000000000000000000000000000000000000000000000000000000000000186A0000186A00003D3BB0001000149
S2841F3880000003E800002710000A0000070804B0070804B0070804B0070804B0070804B00000000000000000000000000000000000000000000000000000000000000000000000000000000003E803E803E803E803E803E803E803E803E803E80000000000000000000000000000000000000000000003E80064001403E80000000000002D
S2841F3900000000000000000000000000000000000000000000000000000000000000000000000000000000000000000000000000000000000000000000000000000000000000000000000000000000000000000000000000000000000000000000000000000000000000000000000000000000000000000000000000000000000000000023
S2841F39800000000000000000000000000000000000000000000000000000000000000000000000000000000000000000000000000000000000000000000000000000000000000000000000000000000000000000000000000000000000000000000000000000000000000000000000000000000000000000000000000000000000000000A3
S2841F3A0000000000000000000000000000000000000000000000000000000000000000000000000000000000000000000000000000000000000000000000000000000000FFFFFFFFFFFFFFFF0000908800009088000090880000908802EE000005DC000002EE000000000001000100010001000100010001000100010001000100010001FC
S2841F3A80000100010001000000C80000FFFFFFFF00000000000000000000000000000000000000000000000000000000FFFFFFFF000493E000020001038403E800002710000A000006B806B806B806B806B806B806B806B806B806B80000000000000000000000000000000000000000000000000000000000000000000000000000000046
S2841F3B0003E803E803E803E803E803E803E803E803E803E80000000000000000000000000000000000000000FFFFFFFF0064001403E8FFFFFFFFFFFF0001FBD000040001039703D400002710000A00000708070807080708070807080708070807080708000000000000000000000000000000000000000000000000000000000000000081
S2841F3B80000000000000000003D403E803E803E803E803E803E803E803E803E80000000000000000000000000000000000000000FFFFFFFF0064001403E8FFFFFFFFFFFF00000000000100010000000000000000000A0000000000000000000000000000000000000000000000000000000000000000000000000000000000000000000022
S2841F3C0000000000000000000000000000000000000A000A000A000A000A000A000A000A000A000A0000000000000000000000000000000000000000FFFFFFFF0064001403E800640000000006400000076C000000000000FFFFFFFFFFFFFFFFFFFFFFFFFFFFFFFFFFFFFFFFFFFFFFFFFFFFFFFFFFFFFFFFFFFFFFFFFFFFFFFFFFFFFFFF6C
S2841F3C800000000000000000000000000000000000000000000000000000000000000000000000000000000000000000000000000000000000000000000000000000000000000000000000000000000000000000000000000000000000000000000000000000000000000000000000000000000000000000000000000000000000000000A0
S2841F3D00FFFFFFFFFFFFFFFFFFFFFFFFFFFFFFFFFFFFFFFFFFFFFFFFFFFFFFFFFFFFFFFF000000000000000000000000000000000000000000000000000000000000000000000000000000000000000000000000FFFFFFFFFFFFFFFFFFFFFFFFFFFFFFFFFFFFFFFFFFFFFFFFFFFFFFFFFFFFFFFF000000000000000000000000000000005F
S2841F3D800000000000000000000000000000000000000000000000000000000000000000000000000000000000000000000000000000000000000000000000000000000000000000000000000BB8000000080006000000000000000000960000012C00000096000002EE000005DC000002EE000000000000000000000000000000000000B4
S2841F3E000000000000000000000000000000000000000000FFFFFFFFFFFFFFFFFFFFFFFFFFFFFFFFFFFFFFFFFFFFFFFFFFFFFFFFFFFFFFFFFFFFFFFFFFFFFFFFFFFFFFFFFFFFFFFFFFFFFFFFFFFFFFFFFFFFFFFFFFFFFFFFFFFFFFFFFFFFFFFFFFFFFFFFFFFFFFFFFFFFFFFFFFFFFFFFFFFFFFFFFFFFFFFFFFFFFFFFFFFFFFFFFFFFFFFF8A
S2841F3E80FFFFFFFFFFFFFFFFFFFFFFFFFFFFFFFFFFFFFFFFFFFFFFFFFFFFFFFFFFFFFFFFFFFFFFFFFFFFFFFFFFFFFFFFFFFFFFFFFFFFFFFFFFFFFFFFFFFFFFFFFFFFFFFFFFFFFFFFFFFFFFFFFFFFFFFFFFFFFFFFFFFFFFFFFFFFFFFFFFFFFFFFFFFFFFFFFFFFFFFFFFFFFFFFFFFFFFFFFFFFFFFFFFFFFFFFFFFFFFFFFFFFFFFFFFFFFFFF1E
S2841F3F004F42533135302D48202020202020202020202020202020202020202020202020FFFFFFFFFFFFFFFFFFFFFFFFFFFFFFFF00000000000000000000000000000000FFFFFFFFFFFFFFFFFFFFFFFFFFFFFFFFFFFFFFFFFFFFFFFFFFFFFFFFFFFFFFFFFFFFFFFFFFFFFFFFFFFFFFFFFFFFFFFFFFFFFFFFFFFFFFFFFFFFFFFFFFFFFFFF7E
S2841F3F80FFFFFFFFFFFFFFFFFFFFFFFFFFFFFFFFFFFFFFFFFFFFFFFFFFFFFFFFFFFFFFFFFFFFFFFFFFFFFFFFFFFFFFFFFFFFFFFFFFFFFFFFFFFFFFFFFFFFFFFFFFFFFFFFFFFFFFFFFFFFFFFFFFFFFFFFFFFFFFFFFFFFFFFFFFFFFFFFFFFFFFFFFFFFFFFFFFFFFFFFFFFFFFFFFFFFFFFFFFFF000000000000000000000000000043BBBC440D
S2841F40000000FFFFFFFFFFFFFFFFFFFFFFFFFFFF000000000000000000000000000000000000000000000000000400000000000000000000000200000000000000000000000000000000000000000000000000000000000000000000000000000000000000000000000000000000000000000000000186A0000186A00003D3BB0001000143
S2841F4080000003E800002710000A0000070804B0070804B0070804B0070804B0070804B00000000000000000000000000000000000000000000000000000000000000000000000000000000003E803E803E803E803E803E803E803E803E803E80000000000000000000000000000000000000000000003E80064001403E800000000000025
S2841F410000000000000000000000000000000000000000000000000000000000000000000000000000000000000000000000000000000000000000000000000000000000000000000000000000000000000000000000000000000000000000000000000000000000000000000000000000000000000000000000000000000000000000001B
S2841F418000000000000000000000000000000000000000000000000000000000000000000000000000000000000000000000000000000000000000000000000000000000000000000000000000000000000000000000000000000000000000000000000000000000000000000000000000000000000000000000000000000000000000009B
S2841F420000000000000000000000000000000000000000000000000000000000000000000000000000000000000000000000000000000000000000000000000000000000FFFFFFFFFFFFFFFF0000908800009088000090880000908802EE000005DC000002EE000000000001000100010001000100010001000100010001000100010001F4
S2841F4280000100010001000000C80000FFFFFFFF00000000000000000000000000000000000000000000000000000000FFFFFFFF0001FBD000020001039003E800002710000A000006B806B806B806B806B806B806B806B806B806B800000000000000000000000000000000000000000000000000000000000000000000000000000000DD
S2841F430003E803E803E803E803E803E803E803E803E803E80000000000000000000000000000000000000000FFFFFFFF03E8001403E8FFFFFFFFFFFF0000000000040001038403E800002710000A000007080708070807080708070807080708070807080000000000000000000000000000000000000000000000000000000000000000BD
S2841F4380000000000000000003E803E803E803E803E803E803E803E803E803E80000000000000000000000000000000000000000FFFFFFFF0064001403E8FFFFFFFFFFFF00000000000100010000000000000000000A0000000000000000000000000000000000000000000000000000000000000000000000000000000000000000000006
S2841F440000000000000000000000000000000000000A000A000A000A000A000A000A000A000A000A0000000000000000000000000000000000000000FFFFFFFF0064001403E800640000000006400000076C000000000000FFFFFFFFFFFFFFFFFFFFFFFFFFFFFFFFFFFFFFFFFFFFFFFFFFFFFFFFFFFFFFFFFFFFFFFFFFFFFFFFFFFFFFFF64
S2841F4480000000000000000000000000000000000000000000000000000000000000000000000000000000000000000000000000000000000000000000000000000000000000000000000000000000000000000000000000000000000000000000000000000000000000000000000000000000000000000000000000000000000000000098
S2841F4500FFFFFFFFFFFFFFFFFFFFFFFFFFFFFFFFFFFFFFFFFFFFFFFFFFFFFFFFFFFFFFFF000000000000000000000000000000000000000000000000000000000000000000000000000000000000000000000000FFFFFFFFFFFFFFFFFFFFFFFFFFFFFFFFFFFFFFFFFFFFFFFFFFFFFFFFFFFFFFFF0000000000000000000000000000000057
S2841F45800000000000000000000000000000000000000000000000000000000000000000000000000000000000000000000000000000000000000000000000000000000000000000000000000BB8000000080006000000000000000000960000012C00000096000002EE000005DC000002EE000000000000000000000000000000000000AC
S2841F46000000000000000000000000000000000000000000FFFFFFFFFFFFFFFFFFFFFFFFFFFFFFFFFFFFFFFFFFFFFFFFFFFFFFFFFFFFFFFFFFFFFFFFFFFFFFFFFFFFFFFFFFFFFFFFFFFFFFFFFFFFFFFFFFFFFFFFFFFFFFFFFFFFFFFFFFFFFFFFFFFFFFFFFFFFFFFFFFFFFFFFFFFFFFFFFFFFFFFFFFFFFFFFFFFFFFFFFFFFFFFFFFFFFFFF82
S2841F4680FFFFFFFFFFFFFFFFFFFFFFFFFFFFFFFFFFFFFFFFFFFFFFFFFFFFFFFFFFFFFFFFFFFFFFFFFFFFFFFFFFFFFFFFFFFFFFFFFFFFFFFFFFFFFFFFFFFFFFFFFFFFFFFFFFFFFFFFFFFFFFFFFFFFFFFFFFFFFFFFFFFFFFFFFFFFFFFFFFFFFFFFFFFFFFFFFFFFFFFFFFFFFFFFFFFFFFFFFFFFFFFFFFFFFFFFFFFFFFFFFFFFFFFFFFFFFFFF16
S2841F47004F42533135302D48202020202020202020202020202020202020202020202020FFFFFFFFFFFFFFFFFFFFFFFFFFFFFFFF00000000000000000000000000000000FFFFFFFFFFFFFFFFFFFFFFFFFFFFFFFFFFFFFFFFFFFFFFFFFFFFFFFFFFFFFFFFFFFFFFFFFFFFFFFFFFFFFFFFFFFFFFFFFFFFFFFFFFFFFFFFFFFFFFFFFFFFFFFF76
S2841F4780FFFFFFFFFFFFFFFFFFFFFFFFFFFFFFFFFFFFFFFFFFFFFFFFFFFFFFFFFFFFFFFFFFFFFFFFFFFFFFFFFFFFFFFFFFFFFFFFFFFFFFFFFFFFFFFFFFFFFFFFFFFFFFFFFFFFFFFFFFFFFFFFFFFFFFFFFFFFFFFFFFFFFFFFFFFFFFFFFFFFFFFFFFFFFFFFFFFFFFFFFFFFFFFFFFFFFFFFFFFF0000000000000000000000000000B37A4C8505
S2841F48000000FFFFFFFFFFFFFFFFFFFFFFFFFFFF000000000000000000000000000000000000000000000000000400000000000000000000000400000000000000000000000000000000000000000000000000000000000000000000000000000000000000000000000000000000000000000000000186A0000186A00003D3BB0001000139
S2841F4880000003E800002710000A0000070804B0070804B0070804B0070804B0070804B00000000000000000000000000000000000000000000000000000000000000000000000000000000003E803E803E803E803E803E803E803E803E803E80000000000000000000000000000000000000000000003E80064001403E80000000000001D
S2841F4900000000000000000000000000000000000000000000000000000000000000000000000000000000000000000000000000000000000000000000000000000000000000000000000000000000000000000000000000000000000000000000000000000000000000000000000000000000000000000000000000000000000000000013
S2841F4980000000000000000000000000000000000000000000000000000000000000000000000000000000000000000000000000000000000000000000000000000000000000000000000000000000000000000000000000000000000000000000000000000000000000000000000000000000000000000000000000000000000000000093
S2841F4A0000000000000000000000000000000000000000000000000000000000000000000000000000000000000000000000000000000000000000000000000000000000FFFFFFFFFFFFFFFF0000908800009088000090880000908802EE000005DC000002EE000000000001000100010001000100010001000100010001000100010001EC
S2841F4A80000100010001000000C80000FFFFFFFF00000000000000000000000000000000000000000000000000000000FFFFFFFF000493E000020001038403E800002710000A000006B806B806B806B806B806B806B806B806B806B80000000000000000000000000000000000000000000000000000000000000000000000000000000036
S2841F4B0003E803E803E803E803E803E803E803E803E803E80000000000000000000000000000000000000000FFFFFFFF0064001403E8FFFFFFFFFFFF00030D4000040004023903E800002710000A000003E805DC067206B80708070807080708070807080001B60900004A2A000013010000056300000000000000000000000000000000BF
S2841F4B80000000000000000003E801F400FA00C803E803E803E803E803E803E80000000000000000000000000000000000000000FFFFFFFF0064001403E8FFFFFFFFFFFF00000000000100010000000000000000000A0000000000000000000000000000000000000000000000000000000000000000000000000000000000000000000008
S2841F4C0000000000000000000000000000000000000A000A000A000A000A000A000A000A000A000A0000000000000000000000000000000000000000FFFFFFFF0064001403E800640000000006400000076C000000000000FFFFFFFFFFFFFFFFFFFFFFFFFFFFFFFFFFFFFFFFFFFFFFFFFFFFFFFFFFFFFFFFFFFFFFFFFFFFFFFFFFFFFFFF5C
S2841F4C80000000000000000000000000000000000000000000000000000000000000000000000000000000000000000000000000000000000000000000000000000000000000000000000000000000000000000000000000000000000000000000000000000000000000000000000000000000000000000000000000000000000000000090
S2841F4D00FFFFFFFFFFFFFFFFFFFFFFFFFFFFFFFFFFFFFFFFFFFFFFFFFFFFFFFFFFFFFFFF000000000000000000000000000000000000000000000000000000000000000000000000000000000000000000000000FFFFFFFFFFFFFFFFFFFFFFFFFFFFFFFFFFFFFFFFFFFFFFFFFFFFFFFFFFFFFFFF000000000000000000000000000000004F
S2841F4D800000000000000000000000000000000000000000000000000000000000000000000000000000000000000000000000000000000000000000000000000000000000000000000000000BB8000000080006000000000000000000960000012C00000096000002EE000005DC000002EE000000000000000000000000000000000000A4
S2841F4E000000000000000000000000000000000000000000FFFFFFFFFFFFFFFFFFFFFFFFFFFFFFFFFFFFFFFFFFFFFFFFFFFFFFFFFFFFFFFFFFFFFFFFFFFFFFFFFFFFFFFFFFFFFFFFFFFFFFFFFFFFFFFFFFFFFFFFFFFFFFFFFFFFFFFFFFFFFFFFFFFFFFFFFFFFFFFFFFFFFFFFFFFFFFFFFFFFFFFFFFFFFFFFFFFFFFFFFFFFFFFFFFFFFFFF7A
S2841F4E80FFFFFFFFFFFFFFFFFFFFFFFFFFFFFFFFFFFFFFFFFFFFFFFFFFFFFFFFFFFFFFFFFFFFFFFFFFFFFFFFFFFFFFFFFFFFFFFFFFFFFFFFFFFFFFFFFFFFFFFFFFFFFFFFFFFFFFFFFFFFFFFFFFFFFFFFFFFFFFFFFFFFFFFFFFFFFFFFFFFFFFFFFFFFFFFFFFFFFFFFFFFFFFFFFFFFFFFFFFFFFFFFFFFFFFFFFFFFFFFFFFFFFFFFFFFFFFFF0E
S2841F4F004831463135302D31312D53202020202020202020202020202020202020202020FFFFFFFFFFFFFFFFFFFFFFFFFFFFFFFF00000000000000000000000000000000FFFFFFFFFFFFFFFFFFFFFFFFFFFFFFFFFFFFFFFFFFFFFFFFFFFFFFFFFFFFFFFFFFFFFFFFFFFFFFFFFFFFFFFFFFFFFFFFFFFFFFFFFFFFFFFFFFFFFFFFFFFFFFFF59
S2841F4F80FFFFFFFFFFFFFFFFFFFFFFFFFFFFFFFFFFFFFFFFFFFFFFFFFFFFFFFFFFFFFFFFFFFFFFFFFFFFFFFFFFFFFFFFFFFFFFFFFFFFFFFFFFFFFFFFFFFFFFFFFFFFFFFFFFFFFFFFFFFFFFFFFFFFFFFFFFFFFFFFFFFFFFFFFFFFFFFFFFFFFFFFFFFFFFFFFFFFFFFFFFFFFFFFFFFFFFFFFFFF00000000000000000000000000008F4370BCFD
S2841F50000000FFFFFFFFFFFFFFFFFFFFFFFFFFFF000000000000000000000000000000000000000000000000000400000000000000000000000200000000000000000000000000000000000000000000000000000000000000000000000000000000000000000000000000000000000000000000000186A0000186A00003D3BB0001000133
S2841F5080000003E800002710000A0000070804B0070804B0070804B0070804B0070804B00000000000000000000000000000000000000000000000000000000000000000000000000000000003E803E803E803E803E803E803E803E803E803E80000000000000000000000000000000000000000000003E80064001403E800000000000015
S2841F510000000000000000000000000000000000000000000000000000000000000000000000000000000000000000000000000000000000000000000000000000000000000000000000000000000000000000000000000000000000000000000000000000000000000000000000000000000000000000000000000000000000000000000B
S2841F518000000000000000000000000000000000000000000000000000000000000000000000000000000000000000000000000000000000000000000000000000000000000000000000000000000000000000000000000000000000000000000000000000000000000000000000000000000000000000000000000000000000000000008B
S2841F520000000000000000000000000000000000000000000000000000000000000000000000000000000000000000000000000000000000000000000000000000000000FFFFFFFFFFFFFFFF0000908800009088000090880000908802EE000005DC000002EE000000000001000100010001000100010001000100010001000100010001E4
S2841F5280000100010001000000C80000FFFFFFFF00000000000000000000000000000000000000000000000000000000FFFFFFFF00030D4000020004023103E800002710000A000003E805DC067206B806B806B806B806B806B806B80001B0AF000044D000000DA7000000090000000000000000000000000000000000000000000000006B
S2841F530003E801F400FA00C803E803E803E803E803E803E80000000000000000000000000000000000000000FFFFFFFF03E8001403E8FFFFFFFFFFFF0000000000040001038403E800002710000A000007080708070807080708070807080708070807080000000000000000000000000000000000000000000000000000000000000000B7
S2841F5380000000000000000003E803E803E803E803E803E803E803E803E803E80000000000000000000000000000000000000000FFFFFFFF0064001403E8FFFFFFFFFFFF00000000000100010000000000000000000A00000000000000000000000000000000000000000000000000000000000000000000000000000000000000000000F6
S2841F540000000000000000000000000000000000000A000A000A000A000A000A000A000A000A000A0000000000000000000000000000000000000000FFFFFFFF0064001403E800640000000006400000076C000000000000FFFFFFFFFFFFFFFFFFFFFFFFFFFFFFFFFFFFFFFFFFFFFFFFFFFFFFFFFFFFFFFFFFFFFFFFFFFFFFFFFFFFFFFF54
S2841F5480000000000000000000000000000000000000000000000000000000000000000000000000000000000000000000000000000000000000000000000000000000000000000000000000000000000000000000000000000000000000000000000000000000000000000000000000000000000000000000000000000000000000000088
S2841F5500FFFFFFFFFFFFFFFFFFFFFFFFFFFFFFFFFFFFFFFFFFFFFFFFFFFFFFFFFFFFFFFF000000000000000000000000000000000000000000000000000000000000000000000000000000000000000000000000FFFFFFFFFFFFFFFFFFFFFFFFFFFFFFFFFFFFFFFFFFFFFFFFFFFFFFFFFFFFFFFF0000000000000000000000000000000047
S2841F55800000000000000000000000000000000000000000000000000000000000000000000000000000000000000000000000000000000000000000000000000000000000000000000000000BB8000000080006000000000000000000960000012C00000096000002EE000005DC000002EE0000000000000000000000000000000000009C
S2841F56000000000000000000000000000000000000000000FFFFFFFFFFFFFFFFFFFFFFFFFFFFFFFFFFFFFFFFFFFFFFFFFFFFFFFFFFFFFFFFFFFFFFFFFFFFFFFFFFFFFFFFFFFFFFFFFFFFFFFFFFFFFFFFFFFFFFFFFFFFFFFFFFFFFFFFFFFFFFFFFFFFFFFFFFFFFFFFFFFFFFFFFFFFFFFFFFFFFFFFFFFFFFFFFFFFFFFFFFFFFFFFFFFFFFFF72
S2841F5680FFFFFFFFFFFFFFFFFFFFFFFFFFFFFFFFFFFFFFFFFFFFFFFFFFFFFFFFFFFFFFFFFFFFFFFFFFFFFFFFFFFFFFFFFFFFFFFFFFFFFFFFFFFFFFFFFFFFFFFFFFFFFFFFFFFFFFFFFFFFFFFFFFFFFFFFFFFFFFFFFFFFFFFFFFFFFFFFFFFFFFFFFFFFFFFFFFFFFFFFFFFFFFFFFFFFFFFFFFFFFFFFFFFFFFFFFFFFFFFFFFFFFFFFFFFFFFFF06
S2841F57004831463135302D31312D53202020202020202020202020202020202020202020FFFFFFFFFFFFFFFFFFFFFFFFFFFFFFFF00000000000000000000000000000000FFFFFFFFFFFFFFFFFFFFFFFFFFFFFFFFFFFFFFFFFFFFFFFFFFFFFFFFFFFFFFFFFFFFFFFFFFFFFFFFFFFFFFFFFFFFFFFFFFFFFFFFFFFFFFFFFFFFFFFFFFFFFFFF51
S2841F5780FFFFFFFFFFFFFFFFFFFFFFFFFFFFFFFFFFFFFFFFFFFFFFFFFFFFFFFFFFFFFFFFFFFFFFFFFFFFFFFFFFFFFFFFFFFFFFFFFFFFFFFFFFFFFFFFFFFFFFFFFFFFFFFFFFFFFFFFFFFFFFFFFFFFFFFFFFFFFFFFFFFFFFFFFFFFFFFFFFFFFFFFFFFFFFFFFFFFFFFFFFFFFFFFFFFFFFFFFFFF0000000000000000000000000000EAB1154EF5
S2841F58000000FFFFFFFFFFFFFFFFFFFFFFFFFFFF000000000000000000000000000000000000000000000000000400000000000000000000000400000000000000000000000000000000000000000000000000000000000000000000000000000000000000000000000000000000000000000000000186A0000186A00003D3BB0001000129
S2841F5880000003E800002710000A0000070804B0070804B0070804B0070804B0070804B00000000000000000000000000000000000000000000000000000000000000000000000000000000003E803E803E803E803E803E803E803E803E803E80000000000000000000000000000000000000000000003E80064001403E80000000000000D
S2841F5900000000000000000000000000000000000000000000000000000000000000000000000000000000000000000000000000000000000000000000000000000000000000000000000000000000000000000000000000000000000000000000000000000000000000000000000000000000000000000000000000000000000000000003
S2841F5980000000000000000000000000000000000000000000000000000000000000000000000000000000000000000000000000000000000000000000000000000000000000000000000000000000000000000000000000000000000000000000000000000000000000000000000000000000000000000000000000000000000000000083
S2841F5A0000000000000000000000000000000000000000000000000000000000000000000000000000000000000000000000000000000000000000000000000000000000FFFFFFFFFFFFFFFF0000908800009088000090880000908802EE000005DC000002EE000000000001000100010001000100010001000100010001000100010001DC
S2841F5A80000100010001000000C80000FFFFFFFF00000000000000000000000000000000000000000000000000000000FFFFFFFF000493E000020001038403E800002710000A000006B806B806B806B806B806B806B806B806B806B80000000000000000000000000000000000000000000000000000000000000000000000000000000026
S2841F5B0003E803E803E803E803E803E803E803E803E803E80000000000000000000000000000000000000000FFFFFFFF0064001403E8FFFFFFFFFFFF0001FBD000040005039703C000002710000A0000060E0672068606B806E007080708070807080708000034060000130100000E4D000005630000015F0000000000000000000000008F
S2841F5B80000000000000000001F400FA00FA019001C203E803E803E803E803E80000000000000000000000000000000000000000FFFFFFFF0064001403E8FFFFFFFFFFFF00000000000100010000000000000000000A0000000000000000000000000000000000000000000000000000000000000000000000000000000000000000000048
S2841F5C0000000000000000000000000000000000000A000A000A000A000A000A000A000A000A000A0000000000000000000000000000000000000000FFFFFFFF0064001403E800640000000006400000076C000000000000FFFFFFFFFFFFFFFFFFFFFFFFFFFFFFFFFFFFFFFFFFFFFFFFFFFFFFFFFFFFFFFFFFFFFFFFFFFFFFFFFFFFFFFF4C
S2841F5C80000000000000000000000000000000000000000000000000000000000000000000000000000000000000000000000000000000000000000000000000000000000000000000000000000000000000000000000000000000000000000000000000000000000000000000000000000000000000000000000000000000000000000080
S2841F5D00FFFFFFFFFFFFFFFFFFFFFFFFFFFFFFFFFFFFFFFFFFFFFFFFFFFFFFFFFFFFFFFF000000000000000000000000000000000000000000000000000000000000000000000000000000000000000000000000FFFFFFFFFFFFFFFFFFFFFFFFFFFFFFFFFFFFFFFFFFFFFFFFFFFFFFFFFFFFFFFF000000000000000000000000000000003F
S2841F5D800000000000000000000000000000000000000000000000000000000000000000000000000000000000000000000000000000000000000000000000000000000000000000000000000BB8000000080006000000000000000000960000012C00000096000002EE000005DC000002EE00000000000000000000000000000000000094
S2841F5E000000000000000000000000000000000000000000FFFFFFFFFFFFFFFFFFFFFFFFFFFFFFFFFFFFFFFFFFFFFFFFFFFFFFFFFFFFFFFFFFFFFFFFFFFFFFFFFFFFFFFFFFFFFFFFFFFFFFFFFFFFFFFFFFFFFFFFFFFFFFFFFFFFFFFFFFFFFFFFFFFFFFFFFFFFFFFFFFFFFFFFFFFFFFFFFFFFFFFFFFFFFFFFFFFFFFFFFFFFFFFFFFFFFFFF6A
S2841F5E80FFFFFFFFFFFFFFFFFFFFFFFFFFFFFFFFFFFFFFFFFFFFFFFFFFFFFFFFFFFFFFFFFFFFFFFFFFFFFFFFFFFFFFFFFFFFFFFFFFFFFFFFFFFFFFFFFFFFFFFFFFFFFFFFFFFFFFFFFFFFFFFFFFFFFFFFFFFFFFFFFFFFFFFFFFFFFFFFFFFFFFFFFFFFFFFFFFFFFFFFFFFFFFFFFFFFFFFFFFFFFFFFFFFFFFFFFFFFFFFFFFFFFFFFFFFFFFFFFE
S2841F5F004831463135302D31312D48202020202020202020202020202020202020202020FFFFFFFFFFFFFFFFFFFFFFFFFFFFFFFF00000000000000000000000000000000FFFFFFFFFFFFFFFFFFFFFFFFFFFFFFFFFFFFFFFFFFFFFFFFFFFFFFFFFFFFFFFFFFFFFFFFFFFFFFFFFFFFFFFFFFFFFFFFFFFFFFFFFFFFFFFFFFFFFFFFFFFFFFFF54
S2841F5F80FFFFFFFFFFFFFFFFFFFFFFFFFFFFFFFFFFFFFFFFFFFFFFFFFFFFFFFFFFFFFFFFFFFFFFFFFFFFFFFFFFFFFFFFFFFFFFFFFFFFFFFFFFFFFFFFFFFFFFFFFFFFFFFFFFFFFFFFFFFFFFFFFFFFFFFFFFFFFFFFFFFFFFFFFFFFFFFFFFFFFFFFFFFFFFFFFFFFFFFFFFFFFFFFFFFFFFFFFFFF0000000000000000000000000000B5E24A1DED
S2841F60000000FFFFFFFFFFFFFFFFFFFFFFFFFFFF000000000000000000000000000000000000000000000000000400000000000000000000000200000000000000000000000000000000000000000000000000000000000000000000000000000000000000000000000000000000000000000000000186A0000186A00003D3BB0001000123
S2841F6080000003E800002710000A0000070804B0070804B0070804B0070804B0070804B00000000000000000000000000000000000000000000000000000000000000000000000000000000003E803E803E803E803E803E803E803E803E803E80000000000000000000000000000000000000000000003E80064001403E800000000000005
S2841F61000000000000000000000000000000000000000000000000000000000000000000000000000000000000000000000000000000000000000000000000000000000000000000000000000000000000000000000000000000000000000000000000000000000000000000000000000000000000000000000000000000000000000000FB
S2841F618000000000000000000000000000000000000000000000000000000000000000000000000000000000000000000000000000000000000000000000000000000000000000000000000000000000000000000000000000000000000000000000000000000000000000000000000000000000000000000000000000000000000000007B
S2841F620000000000000000000000000000000000000000000000000000000000000000000000000000000000000000000000000000000000000000000000000000000000FFFFFFFFFFFFFFFF0000908800009088000090880000908802EE000005DC000002EE000000000001000100010001000100010001000100010001000100010001D4
S2841F6280000100010001000000C80000FFFFFFFF00000000000000000000000000000000000000000000000000000000FFFFFFFF0001FBD000020004039003E800002710000A0000060E0672068606B806B806B806B806B806B806B800002EAC00000DA7000008F3000000090000000000000000000000000000000000000000000000004A
S2841F6300022600FA00C800C803E803E803E803E803E803E80000000000000000000000000000000000000000FFFFFFFF03E8001403E8FFFFFFFFFFFF0000000000040001038403E800002710000A00000708070807080708070807080708070807080708000000000000000000000000000000000000000000000000000000000000000097
S2841F6380000000000000000003E803E803E803E803E803E803E803E803E803E80000000000000000000000000000000000000000FFFFFFFF0064001403E8FFFFFFFFFFFF00000000000100010000000000000000000A00000000000000000000000000000000000000000000000000000000000000000000000000000000000000000000E6
S2841F640000000000000000000000000000000000000A000A000A000A000A000A000A000A000A000A0000000000000000000000000000000000000000FFFFFFFF0064001403E800640000000006400000076C000000000000FFFFFFFFFFFFFFFFFFFFFFFFFFFFFFFFFFFFFFFFFFFFFFFFFFFFFFFFFFFFFFFFFFFFFFFFFFFFFFFFFFFFFFFF44
S2841F6480000000000000000000000000000000000000000000000000000000000000000000000000000000000000000000000000000000000000000000000000000000000000000000000000000000000000000000000000000000000000000000000000000000000000000000000000000000000000000000000000000000000000000078
S2841F6500FFFFFFFFFFFFFFFFFFFFFFFFFFFFFFFFFFFFFFFFFFFFFFFFFFFFFFFFFFFFFFFF000000000000000000000000000000000000000000000000000000000000000000000000000000000000000000000000FFFFFFFFFFFFFFFFFFFFFFFFFFFFFFFFFFFFFFFFFFFFFFFFFFFFFFFFFFFFFFFF0000000000000000000000000000000037
S2841F65800000000000000000000000000000000000000000000000000000000000000000000000000000000000000000000000000000000000000000000000000000000000000000000000000BB8000000080006000000000000000000960000012C00000096000002EE000005DC000002EE0000000000000000000000000000000000008C
S2841F66000000000000000000000000000000000000000000FFFFFFFFFFFFFFFFFFFFFFFFFFFFFFFFFFFFFFFFFFFFFFFFFFFFFFFFFFFFFFFFFFFFFFFFFFFFFFFFFFFFFFFFFFFFFFFFFFFFFFFFFFFFFFFFFFFFFFFFFFFFFFFFFFFFFFFFFFFFFFFFFFFFFFFFFFFFFFFFFFFFFFFFFFFFFFFFFFFFFFFFFFFFFFFFFFFFFFFFFFFFFFFFFFFFFFFF62
S2841F6680FFFFFFFFFFFFFFFFFFFFFFFFFFFFFFFFFFFFFFFFFFFFFFFFFFFFFFFFFFFFFFFFFFFFFFFFFFFFFFFFFFFFFFFFFFFFFFFFFFFFFFFFFFFFFFFFFFFFFFFFFFFFFFFFFFFFFFFFFFFFFFFFFFFFFFFFFFFFFFFFFFFFFFFFFFFFFFFFFFFFFFFFFFFFFFFFFFFFFFFFFFFFFFFFFFFFFFFFFFFFFFFFFFFFFFFFFFFFFFFFFFFFFFFFFFFFFFFFF6
S2841F67004831463135302D31312D48202020202020202020202020202020202020202020FFFFFFFFFFFFFFFFFFFFFFFFFFFFFFFF00000000000000000000000000000000FFFFFFFFFFFFFFFFFFFFFFFFFFFFFFFFFFFFFFFFFFFFFFFFFFFFFFFFFFFFFFFFFFFFFFFFFFFFFFFFFFFFFFFFFFFFFFFFFFFFFFFFFFFFFFFFFFFFFFFFFFFFFFFF4C
S2841F6780FFFFFFFFFFFFFFFFFFFFFFFFFFFFFFFFFFFFFFFFFFFFFFFFFFFFFFFFFFFFFFFFFFFFFFFFFFFFFFFFFFFFFFFFFFFFFFFFFFFFFFFFFFFFFFFFFFFFFFFFFFFFFFFFFFFFFFFFFFFFFFFFFFFFFFFFFFFFFFFFFFFFFFFFFFFFFFFFFFFFFFFFFFFFFFFFFFFFFFFFFFFFFFFFFFFFFFFFFFFF0000000000000000000000000000119FEE60E5
S2841F68000000FFFFFFFFFFFFFFFFFFFFFFFFFFFF000000000000000000000000000000000000000000000000000400000000000000000000000100000000000000000000000000000000000000000000000000000000000000000000000000000000000000000000000000000000000000000000000186A0000186A00003D3BB0001000419
S2841F6880000003E800002710000A000004B0067206A40708070804B0070804B0070804B000010E99000013010000086C0000000000000000000000000000000000000000000000000000000003E800FA015E01C203E803E803E803E803E803E80000000000000000000000000000000000000000000003E80064001403E800000000000013
S2841F69000000000000000000000000000000000000000000000000000000000000000000000000000000000000000000000000000000000000000000000000000000000000000000000000000000000000000000000000000000000000000000000000000000000000000000000000000000000000000000000000000000000000000000F3
S2841F6980000000000000000000000000000000000000000000000000000000000000000000000000000000000000000000000000000000000000000000000000000000000000000000000000000000000000000000000000000000000000000000000000000000000000000000000000000000000000000000000000000000000000000073
S2841F6A0000000000000000000000000000000000000000000000000000000000000000000000000000000000000000000000000000000000000000000000000000000000FFFFFFFFFFFFFFFF0000908800009088000090880000908802EE000005DC000002EE000000000001000100010001000100010001000100010001000100010001CC
S2841F6A80000100010001000000C80000FFFFFFFF00000000000000000000000000000000000000000000000000000000FFFFFFFF000493E000020001038403E800002710000A000006B806B806B806B806B806B806B806B806B806B80000000000000000000000000000000000000000000000000000000000000000000000000000000016
S2841F6B0003E803E803E803E803E803E803E803E803E803E80000000000000000000000000000000000000000FFFFFFFF0064001403E8FFFFFFFFFFFF0000000000040001038403E800002710000A0000070807080708070807080708070807080708070800000000000000000000000000000000000000000000000000000000000000001C
S2841F6B80000000000000000003E803E803E803E803E803E803E803E803E803E80000000000000000000000000000000000000000FFFFFFFF0064001403E8FFFFFFFFFFFF00000000000100010000000000000000000A00000000000000000000000000000000000000000000000000000000000000000000000000000000000000000000DE
S2841F6C0000000000000000000000000000000000000A000A000A000A000A000A000A000A000A000A0000000000000000000000000000000000000000FFFFFFFF0064001403E800640000000006400000076C000000000000FFFFFFFFFFFFFFFFFFFFFFFFFFFFFFFFFFFFFFFFFFFFFFFFFFFFFFFFFFFFFFFFFFFFFFFFFFFFFFFFFFFFFFFF3C
S2841F6C80000000000000000000000000000000000000000000000000000000000000000000000000000000000000000000000000000000000000000000000000000000000000000000000000000000000000000000000000000000000000000000000000000000000000000000000000000000000000000000000000000000000000000070
S2841F6D00FFFFFFFFFFFFFFFFFFFFFFFFFFFFFFFFFFFFFFFFFFFFFFFFFFFFFFFFFFFFFFFF000000000000000000000000000000000000000000000000000000000000000000000000000000000000000000000000FFFFFFFFFFFFFFFFFFFFFFFFFFFFFFFFFFFFFFFFFFFFFFFFFFFFFFFFFFFFFFFF000000000000000000000000000000002F
S2841F6D800000000000000000000000000000000000000000000000000000000000000000000000000000000000000000000000000000000000000000000000000000000000000000000000000BB8000000080006000000000000000000960000012C00000096000002EE000005DC000002EE00000000000000000000000000000000000084
S2841F6E000000000000000000000000000000000000000000FFFFFFFFFFFFFFFFFFFFFFFFFFFFFFFFFFFFFFFFFFFFFFFFFFFFFFFFFFFFFFFFFFFFFFFFFFFFFFFFFFFFFFFFFFFFFFFFFFFFFFFFFFFFFFFFFFFFFFFFFFFFFFFFFFFFFFFFFFFFFFFFFFFFFFFFFFFFFFFFFFFFFFFFFFFFFFFFFFFFFFFFFFFFFFFFFFFFFFFFFFFFFFFFFFFFFFFF5A
S2841F6E80FFFFFFFFFFFFFFFFFFFFFFFFFFFFFFFFFFFFFFFFFFFFFFFFFFFFFFFFFFFFFFFFFFFFFFFFFFFFFFFFFFFFFFFFFFFFFFFFFFFFFFFFFFFFFFFFFFFFFFFFFFFFFFFFFFFFFFFFFFFFFFFFFFFFFFFFFFFFFFFFFFFFFFFFFFFFFFFFFFFFFFFFFFFFFFFFFFFFFFFFFFFFFFFFFFFFFFFFFFFFFFFFFFFFFFFFFFFFFFFFFFFFFFFFFFFFFFFFEE
S2841F6F004C494E4B20202020202020202020202020202020202020202020202020202020FFFFFFFFFFFFFFFFFFFFFFFFFFFFFFFF00000000000000000000000000000000FFFFFFFFFFFFFFFFFFFFFFFFFFFFFFFFFFFFFFFFFFFFFFFFFFFFFFFFFFFFFFFFFFFFFFFFFFFFFFFFFFFFFFFFFFFFFFFFFFFFFFFFFFFFFFFFFFFFFFFFFFFFFFFF8F
S2841F6F80FFFFFFFFFFFFFFFFFFFFFFFFFFFFFFFFFFFFFFFFFFFFFFFFFFFFFFFFFFFFFFFFFFFFFFFFFFFFFFFFFFFFFFFFFFFFFFFFFFFFFFFFFFFFFFFFFFFFFFFFFFFFFFFFFFFFFFFFFFFFFFFFFFFFFFFFFFFFFFFFFFFFFFFFFFFFFFFFFFFFFFFFFFFFFFFFFFFFFFFFFFFFFFFFFFFFFFFFFFFF000000000000000000000000000041AFBE50DD
S2841F70000000FFFFFFFFFFFFFFFFFFFFFFFFFFFF000000000000000000000000000000000000000000000000000400000000000000000000000100000000000000000000000000000000000000000000000000000000000000000000000000000000000000000000000000000000000000000000000186A0000186A00003D3BB0001000213
S2841F7080000003E800002710000A00000513066F070804B0070804B0070804B0070804B00000C35000001388000000000000000000000000000000000000000000000000000000000000000003E801F403E803E803E803E803E803E803E803E80000000000000000000000000000000000000000000003E80064001403E800000000000073
S2841F71000000000000000000000000000000000000000000000000000000000000000000000000000000000000000000000000000000000000000000000000000000000000000000000000000000000000000000000000000000000000000000000000000000000000000000000000000000000000000000000000000000000000000000EB
S2841F718000000000000000000000000000000000000000000000000000000000000000000000000000000000000000000000000000000000000000000000000000000000000000000000000000000000000000000000000000000000000000000000000000000000000000000000000000000000000000000000000000000000000000006B
S2841F720000000000000000000000000000000000000000000000000000000000000000000000000000000000000000000000000000000000000000000000000000000000FFFFFFFFFFFFFFFF0000908800009088000090880000908802EE000005DC000002EE000000000001000100010001000100010001000100010001000100010001C4
S2841F7280000100010001000000C80000FFFFFFFF00000000000000000000000000000000000000000000000000000000FFFFFFFF000493E000020001038403E800002710000A000006B806B806B806B806B806B806B806B806B806B8000000000000000000000000000000000000000000000000000000000000000000000000000000000E
S2841F730003E803E803E803E803E803E803E803E803E803E80000000000000000000000000000000000000000FFFFFFFF0064001403E8FFFFFFFFFFFF0000000000040001038403E800002710000A00000708070807080708070807080708070807080708000000000000000000000000000000000000000000000000000000000000000014
S2841F7380000000000000000003E803E803E803E803E803E803E803E803E803E80000000000000000000000000000000000000000FFFFFFFF0064001403E8FFFFFFFFFFFF00000000000100010000000000000000000A00000000000000000000000000000000000000000000000000000000000000000000000000000000000000000000D6
S2841F740000000000000000000000000000000000000A000A000A000A000A000A000A000A000A000A0000000000000000000000000000000000000000FFFFFFFF0064001403E800640000000006400000076C000000000000FFFFFFFFFFFFFFFFFFFFFFFFFFFFFFFFFFFFFFFFFFFFFFFFFFFFFFFFFFFFFFFFFFFFFFFFFFFFFFFFFFFFFFFF34
S2841F7480000000000000000000000000000000000000000000000000000000000000000000000000000000000000000000000000000000000000000000000000000000000000000000000000000000000000000000000000000000000000000000000000000000000000000000000000000000000000000000000000000000000000000068
S2841F7500FFFFFFFFFFFFFFFFFFFFFFFFFFFFFFFFFFFFFFFFFFFFFFFFFFFFFFFFFFFFFFFF000000000000000000000000000000000000000000000000000000000000000000000000000000000000000000000000FFFFFFFFFFFFFFFFFFFFFFFFFFFFFFFFFFFFFFFFFFFFFFFFFFFFFFFFFFFFFFFF0000000000000000000000000000000027
S2841F75800000000000000000000000000000000000000000000000000000000000000000000000000000000000000000000000000000000000000000000000000000000000000000000000000BB8000000080006000000000000000000960000012C00000096000002EE000005DC000002EE0000000000000000000000000000000000007C
S2841F76000000000000000000000000000000000000000000FFFFFFFFFFFFFFFFFFFFFFFFFFFFFFFFFFFFFFFFFFFFFFFFFFFFFFFFFFFFFFFFFFFFFFFFFFFFFFFFFFFFFFFFFFFFFFFFFFFFFFFFFFFFFFFFFFFFFFFFFFFFFFFFFFFFFFFFFFFFFFFFFFFFFFFFFFFFFFFFFFFFFFFFFFFFFFFFFFFFFFFFFFFFFFFFFFFFFFFFFFFFFFFFFFFFFFFF52
S2841F7680FFFFFFFFFFFFFFFFFFFFFFFFFFFFFFFFFFFFFFFFFFFFFFFFFFFFFFFFFFFFFFFFFFFFFFFFFFFFFFFFFFFFFFFFFFFFFFFFFFFFFFFFFFFFFFFFFFFFFFFFFFFFFFFFFFFFFFFFFFFFFFFFFFFFFFFFFFFFFFFFFFFFFFFFFFFFFFFFFFFFFFFFFFFFFFFFFFFFFFFFFFFFFFFFFFFFFFFFFFFFFFFFFFFFFFFFFFFFFFFFFFFFFFFFFFFFFFFFE6
S2841F770050524F4752452E20524F542E2020202020202020202020202020202020202020FFFFFFFFFFFFFFFFFFFFFFFFFFFFFFFF00000000000000000000000000000000FFFFFFFFFFFFFFFFFFFFFFFFFFFFFFFFFFFFFFFFFFFFFFFFFFFFFFFFFFFFFFFFFFFFFFFFFFFFFFFFFFFFFFFFFFFFFFFFFFFFFFFFFFFFFFFFFFFFFFFFFFFFFFFF75
S2841F7780FFFFFFFFFFFFFFFFFFFFFFFFFFFFFFFFFFFFFFFFFFFFFFFFFFFFFFFFFFFFFFFFFFFFFFFFFFFFFFFFFFFFFFFFFFFFFFFFFFFFFFFFFFFFFFFFFFFFFFFFFFFFFFFFFFFFFFFFFFFFFFFFFFFFFFFFFFFFFFFFFFFFFFFFFFFFFFFFFFFFFFFFFFFFFFFFFFFFFFFFFFFFFFFFFFFFFFFFFFFF00000000000000000000000000009DFB6204D5
S2841F78000000FFFFFFFFFFFFFFFFFFFFFFFFFFFF000000000000000000000000000000000000000000000000000400000000000000000000000400000000000000000000000000000000000000000000000000000000000000000000000000000000000000000000000000000000000000000000000186A0000186A00003D3BB0001000109
S2841F7880000003E800002710000A0000070804B0070804B0070804B0070804B0070804B00000000000000000000000000000000000000000000000000000000000000000000000000000000003E803E803E803E803E803E803E803E803E803E80000000000000000000000000000000000000000000003E80064001403E8000000000000ED
S2841F79000000000000000000000000000000000000000000000000000000000000000000000000000000000000000000000000000000000000000000000000000000000000000000000000000000000000000000000000000000000000000000000000000000000000000000000000000000000000000000000000000000000000000000E3
S2841F7980000000000000000000000000000000000000000000000000000000000000000000000000000000000000000000000000000000000000000000000000000000000000000000000000000000000000000000000000000000000000000000000000000000000000000000000000000000000000000000000000000000000000000063
S2841F7A0000000000000000000000000000000000000000000000000000000000000000000000000000000000000000000000000000000000000000000000000000000000FFFFFFFFFFFFFFFF0000908800009088000090880000908802EE000005DC000002EE000000000001000100010001000100010001000100010001000100010001BC
S2841F7A80000100010001000000C80000FFFFFFFF00000000000000000000000000000000000000000000000000000000FFFFFFFF000493E000020001038403E800002710000A000006B806B806B806B806B806B806B806B806B806B80000000000000000000000000000000000000000000000000000000000000000000000000000000006
S2841F7B0003E803E803E803E803E803E803E803E803E803E80000000000000000000000000000000000000000FFFFFFFF0064001403E8FFFFFFFFFFFF00030D4000040002023903E800002710000A00000513066F070807080708070807080708070807080000C35000001388000000000000000000000000000000000000000000000000EA
S2841F7B80000000000000000003E801FE03E803E803E803E803E803E803E803E80000000000000000000000000000000000000000FFFFFFFF0064001403E8FFFFFFFFFFFF00000000000100010000000000000000000A00000000000000000000000000000000000000000000000000000000000000000000000000000000000000000000BA
S2841F7C0000000000000000000000000000000000000A000A000A000A000A000A000A000A000A000A0000000000000000000000000000000000000000FFFFFFFF0064001403E800640000000006400000076C000000000000FFFFFFFFFFFFFFFFFFFFFFFFFFFFFFFFFFFFFFFFFFFFFFFFFFFFFFFFFFFFFFFFFFFFFFFFFFFFFFFFFFFFFFFF2C
S2841F7C80000000000000000000000000000000000000000000000000000000000000000000000000000000000000000000000000000000000000000000000000000000000000000000000000000000000000000000000000000000000000000000000000000000000000000000000000000000000000000000000000000000000000000060
S2841F7D00FFFFFFFFFFFFFFFFFFFFFFFFFFFFFFFFFFFFFFFFFFFFFFFFFFFFFFFFFFFFFFFF000000000000000000000000000000000000000000000000000000000000000000000000000000000000000000000000FFFFFFFFFFFFFFFFFFFFFFFFFFFFFFFFFFFFFFFFFFFFFFFFFFFFFFFFFFFFFFFF000000000000000000000000000000001F
S2841F7D800000000000000000000000000000000000000000000000000000000000000000000000000000000000000000000000000000000000000000000000000000000000000000000000000BB8000000080006000000000000000000960000012C00000096000002EE000005DC000002EE00000000000000000000000000000000000074
S2841F7E000000000000000000000000000000000000000000FFFFFFFFFFFFFFFFFFFFFFFFFFFFFFFFFFFFFFFFFFFFFFFFFFFFFFFFFFFFFFFFFFFFFFFFFFFFFFFFFFFFFFFFFFFFFFFFFFFFFFFFFFFFFFFFFFFFFFFFFFFFFFFFFFFFFFFFFFFFFFFFFFFFFFFFFFFFFFFFFFFFFFFFFFFFFFFFFFFFFFFFFFFFFFFFFFFFFFFFFFFFFFFFFFFFFFFF4A
S2841F7E80FFFFFFFFFFFFFFFFFFFFFFFFFFFFFFFFFFFFFFFFFFFFFFFFFFFFFFFFFFFFFFFFFFFFFFFFFFFFFFFFFFFFFFFFFFFFFFFFFFFFFFFFFFFFFFFFFFFFFFFFFFFFFFFFFFFFFFFFFFFFFFFFFFFFFFFFFFFFFFFFFFFFFFFFFFFFFFFFFFFFFFFFFFFFFFFFFFFFFFFFFFFFFFFFFFFFFFFFFFFFFFFFFFFFFFFFFFFFFFFFFFFFFFFFFFFFFFFFDE
S2841F7F0050524F4752452E2050454E2E2020202020202020202020202020202020202020FFFFFFFFFFFFFFFFFFFFFFFFFFFFFFFF00000000000000000000000000000000FFFFFFFFFFFFFFFFFFFFFFFFFFFFFFFFFFFFFFFFFFFFFFFFFFFFFFFFFFFFFFFFFFFFFFFFFFFFFFFFFFFFFFFFFFFFFFFFFFFFFFFFFFFFFFFFFFFFFFFFFFFFFFFF7F
S2841F7F80FFFFFFFFFFFFFFFFFFFFFFFFFFFFFFFFFFFFFFFFFFFFFFFFFFFFFFFFFFFFFFFFFFFFFFFFFFFFFFFFFFFFFFFFFFFFFFFFFFFFFFFFFFFFFFFFFFFFFFFFFFFFFFFFFFFFFFFFFFFFFFFFFFFFFFFFFFFFFFFFFFFFFFFFFFFFFFFFFFFFFFFFFFFFFFFFFFFFFFFFFFFFFFFFFFFFFFFFFFFF00000000000000000000000000009F9E6061CD
S2841F80000000FFFFFFFFFFFFFFFFFFFFFFFFFFFF000000000000000000000000000000000000000000000000000400000000000000000000000100000000000000000000000000000000000000000000000000000000000000000000000000000000000000000000000000000000000000000000000186A0000186A00003D3BB0001000104
S2841F8080000003E800002710000A0000070804B0070804B0070804B0070804B0070804B00000000000000000000000000000000000000000000000000000000000000000000000000000000003E803E803E803E803E803E803E803E803E803E80001000000000000000000000000000000000000000003E80064001403E8000000000000E4
S2841F81000000000000000000000000000000000000000000000000000000000000000000000000000000000000000000000000000000000000000000000000000000000000000000000000000000000000000000000000000000000000000000000000000000000000000000000000000000000000000000000000000000000000000000DB
S2841F818000000000000000000000000000000000000000000000000000000000000000000000000000000000000000000000000000000000000000000000000000000000000000000000000000000000000000000000000000000000000000000000000000000000000000000000000000000000000000000000000000000000000000005B
S2841F820000000000000000000000000000000000000000000000000000000000000000000000000000000000000000000000000000000000000000000000000000000000FFFFFFFFFFFFFFFF0000908800009088000090880000908802EE000005DC000002EE000000000001000100010001000100010001000100010001000100010001B4
S2841F8280000100010001000000C80000FFFFFFFF00000000000000000000000000000000000000000000000000000000FFFFFFFF000493E000020001038403E800002710000A000006B806B806B806B806B806B806B806B806B806B800000000000000000000000000000000000000000000000000000000000000000000000000000000FE
S2841F830003E803E803E803E803E803E803E803E803E803E80000000000000000000000000000000000000000FFFFFFFF0064001403E8FFFFFFFFFFFF0000000000040001038403E800002710000A00000708070807080708070807080708070807080708000000000000000000000000000000000000000000000000000000000000000004
S2841F8380000000000000000003E803E803E803E803E803E803E803E803E803E80000000000000000000000000000000000000000FFFFFFFF0064001403E8FFFFFFFFFFFF00000000000100010000000000000000000A00000000000000000000000000000000000000000000000000000000000000000000000000000000000000000000C6
S2841F840000000000000000000000000000000000000A000A000A000A000A000A000A000A000A000A0000000000000000000000000000000000000000FFFFFFFF0064001403E800640000000006400000076C000000000000FFFFFFFFFFFFFFFFFFFFFFFFFFFFFFFFFFFFFFFFFFFFFFFFFFFFFFFFFFFFFFFFFFFFFFFFFFFFFFFFFFFFFFFF24
S2841F8480000000000000000000000000000000000000000000000000000000000000000000000000000000000000000000000000000000000000000000000000000000000000000000000000000000000000000000000000000000000000000000000000000000000000000000000000000000000000000000000000000000000000000058
S2841F8500FFFFFFFFFFFFFFFFFFFFFFFFFFFFFFFFFFFFFFFFFFFFFFFFFFFFFFFFFFFFFFFF000000000000000000000000000000000000000000000000000000000000000000000000000000000000000000000000FFFFFFFFFFFFFFFFFFFFFFFFFFFFFFFFFFFFFFFFFFFFFFFFFFFFFFFFFFFFFFFF0000000000000000000000000000000017
S2841F85800000000000000000000000000000000000000000000000000000000000000000000000000000000000000000000000000000000000000000000000000000000000000000000000000BB8000000080006000000000000000000960000012C00000096000002EE000005DC000002EE0000000000000000000000000000000000006C
S2841F86000000000000000000000000000000000000000000FFFFFFFFFFFFFFFFFFFFFFFFFFFFFFFFFFFFFFFFFFFFFFFFFFFFFFFFFFFFFFFFFFFFFFFFFFFFFFFFFFFFFFFFFFFFFFFFFFFFFFFFFFFFFFFFFFFFFFFFFFFFFFFFFFFFFFFFFFFFFFFFFFFFFFFFFFFFFFFFFFFFFFFFFFFFFFFFFFFFFFFFFFFFFFFFFFFFFFFFFFFFFFFFFFFFFFFF42
S2841F8680FFFFFFFFFFFFFFFFFFFFFFFFFFFFFFFFFFFFFFFFFFFFFFFFFFFFFFFFFFFFFFFFFFFFFFFFFFFFFFFFFFFFFFFFFFFFFFFFFFFFFFFFFFFFFFFFFFFFFFFFFFFFFFFFFFFFFFFFFFFFFFFFFFFFFFFFFFFFFFFFFFFFFFFFFFFFFFFFFFFFFFFFFFFFFFFFFFFFFFFFFFFFFFFFFFFFFFFFFFFFFFFFFFFFFFFFFFFFFFFFFFFFFFFFFFFFFFFFD6
S2841F870042454E442E20524F542E20202020202020202020202020202020202020202020FFFFFFFFFFFFFFFFFFFFFFFFFFFFFFFF00000000000000000000000000000000FFFFFFFFFFFFFFFFFFFFFFFFFFFFFFFFFFFFFFFFFFFFFFFFFFFFFFFFFFFFFFFFFFFFFFFFFFFFFFFFFFFFFFFFFFFFFFFFFFFFFFFFFFFFFFFFFFFFFFFFFFFFFFFFDB
S2841F8780FFFFFFFFFFFFFFFFFFFFFFFFFFFFFFFFFFFFFFFFFFFFFFFFFFFFFFFFFFFFFFFFFFFFFFFFFFFFFFFFFFFFFFFFFFFFFFFFFFFFFFFFFFFFFFFFFFFFFFFFFFFFFFFFFFFFFFFFFFFFFFFFFFFFFFFFFFFFFFFFFFFFFFFFFFFFFFFFFFFFFFFFFFFFFFFFFFFFFFFFFFFFFFFFFFFFFFFFFFFF0000000000000000000000000000881877E7C5
S2841F88000000FFFFFFFFFFFFFFFFFFFFFFFFFFFF000000000000000000000000000000000000000000000000000400000000000000000000000400000000000000000000000000000000000000000000000000000000000000000000000000000000000000000000000000000000000000000000000186A0000186A00003D3BB00010001F9
S2841F8880000003E800002710000A0000070804B0070804B0070804B0070804B0070804B00000000000000000000000000000000000000000000000000000000000000000000000000000000003E803E803E803E803E803E803E803E803E803E80000000000000000000000000000000000000000000003E80064001403E8000000000000DD
S2841F89000000000000000000000000000000000000000000000000000000000000000000000000000000000000000000000000000000000000000000000000000000000000000000000000000000000000000000000000000000000000000000000000000000000000000000000000000000000000000000000000000000000000000000D3
S2841F8980000000000000000000000000000000000000000000000000000000000000000000000000000000000000000000000000000000000000000000000000000000000000000000000000000000000000000000000000000000000000000000000000000000000000000000000000000000000000000000000000000000000000000053
S2841F8A0000000000000000000000000000000000000000000000000000000000000000000000000000000000000000000000000000000000000000000000000000000000FFFFFFFFFFFFFFFF0000908800009088000090880000908802EE000005DC000002EE000000000001000100010001000100010001000100010001000100010001AC
S2841F8A80000100010001000000C80000FFFFFFFF00000000000000000000000000000000000000000000000000000000FFFFFFFF000493E000020001038403E800002710000A000006B806B806B806B806B806B806B806B806B806B800000000000000000000000000000000000000000000000000000000000000000000000000000000F6
S2841F8B0003E803E803E803E803E803E803E803E803E803E80000000000000000000000000000000000000000FFFFFFFF0064001403E8FFFFFFFFFFFF00030D4000040001023903E800002710000A000007080708070807080708070807080708070807080000000000000000000000000000000000000000000000000000000000000000F8
S2841F8B80000000000000000003E803E803E803E803E803E803E803E803E803E80001000000000000000000000000000000000000FFFFFFFF0064001403E8FFFFFFFFFFFF00000000000100010000000000000000000A00000000000000000000000000000000000000000000000000000000000000000000000000000000000000000000BD
S2841F8C0000000000000000000000000000000000000A000A000A000A000A000A000A000A000A000A0000000000000000000000000000000000000000FFFFFFFF0064001403E800640000000006400000076C000000000000FFFFFFFFFFFFFFFFFFFFFFFFFFFFFFFFFFFFFFFFFFFFFFFFFFFFFFFFFFFFFFFFFFFFFFFFFFFFFFFFFFFFFFFF1C
S2841F8C80000000000000000000000000000000000000000000000000000000000000000000000000000000000000000000000000000000000000000000000000000000000000000000000000000000000000000000000000000000000000000000000000000000000000000000000000000000000000000000000000000000000000000050
S2841F8D00FFFFFFFFFFFFFFFFFFFFFFFFFFFFFFFFFFFFFFFFFFFFFFFFFFFFFFFFFFFFFFFF000000000000000000000000000000000000000000000000000000000000000000000000000000000000000000000000FFFFFFFFFFFFFFFFFFFFFFFFFFFFFFFFFFFFFFFFFFFFFFFFFFFFFFFFFFFFFFFF000000000000000000000000000000000F
S2841F8D800000000000000000000000000000000000000000000000000000000000000000000000000000000000000000000000000000000000000000000000000000000000000000000000000BB8000000080006000000000000000000960000012C00000096000002EE000005DC000002EE00000000000000000000000000000000000064
S2841F8E000000000000000000000000000000000000000000FFFFFFFFFFFFFFFFFFFFFFFFFFFFFFFFFFFFFFFFFFFFFFFFFFFFFFFFFFFFFFFFFFFFFFFFFFFFFFFFFFFFFFFFFFFFFFFFFFFFFFFFFFFFFFFFFFFFFFFFFFFFFFFFFFFFFFFFFFFFFFFFFFFFFFFFFFFFFFFFFFFFFFFFFFFFFFFFFFFFFFFFFFFFFFFFFFFFFFFFFFFFFFFFFFFFFFFF3A
S2841F8E80FFFFFFFFFFFFFFFFFFFFFFFFFFFFFFFFFFFFFFFFFFFFFFFFFFFFFFFFFFFFFFFFFFFFFFFFFFFFFFFFFFFFFFFFFFFFFFFFFFFFFFFFFFFFFFFFFFFFFFFFFFFFFFFFFFFFFFFFFFFFFFFFFFFFFFFFFFFFFFFFFFFFFFFFFFFFFFFFFFFFFFFFFFFFFFFFFFFFFFFFFFFFFFFFFFFFFFFFFFFFFFFFFFFFFFFFFFFFFFFFFFFFFFFFFFFFFFFFCE
S2841F8F0042454E442E2050454E2E20202020202020202020202020202020202020202020FFFFFFFFFFFFFFFFFFFFFFFFFFFFFFFF00000000000000000000000000000000FFFFFFFFFFFFFFFFFFFFFFFFFFFFFFFFFFFFFFFFFFFFFFFFFFFFFFFFFFFFFFFFFFFFFFFFFFFFFFFFFFFFFFFFFFFFFFFFFFFFFFFFFFFFFFFFFFFFFFFFFFFFFFFFE5
S2841F8F80FFFFFFFFFFFFFFFFFFFFFFFFFFFFFFFFFFFFFFFFFFFFFFFFFFFFFFFFFFFFFFFFFFFFFFFFFFFFFFFFFFFFFFFFFFFFFFFFFFFFFFFFFFFFFFFFFFFFFFFFFFFFFFFFFFFFFFFFFFFFFFFFFFFFFFFFFFFFFFFFFFFFFFFFFFFFFFFFFFFFFFFFFFFFFFFFFFFFFFFFFFFFFFFFFFFFFFFFFFFF00000000000000000000000000008C0973F6BD
S2841F90000000FFFFFFFFFFFFFFFFFFFFFFFFFFFF000000000000000000000000000000000000000000000000000400000000000000000000000100000000000000000000000000000000000000000000000000000000000000000000000000000000000000000000000000000000000000000000000186A0000186A00003D3BB00010002F3
S2841F9080000003E800002710000A000006B40708070804B0070804B0070804B0070804B0000005DC00000000000000000000000000000000000000000000000000000000000000000000000003E801C203E803E803E803E803E803E803E803E80001000000000000000000000000000000000000000003E80064001403E800000000000015
S2841F91000000000000000000000000000000000000000000000000000000000000000000000000000000000000000000000000000000000000000000000000000000000000000000000000000000000000000000000000000000000000000000000000000000000000000000000000000000000000000000000000000000000000000000CB
S2841F918000000000000000000000000000000000000000000000000000000000000000000000000000000000000000000000000000000000000000000000000000000000000000000000000000000000000000000000000000000000000000000000000000000000000000000000000000000000000000000000000000000000000000004B
S2841F920000000000000000000000000000000000000000000000000000000000000000000000000000000000000000000000000000000000000000000000000000000000FFFFFFFFFFFFFFFF0000908800009088000090880000908802EE000005DC000002EE000000000001000100010001000100010001000100010001000100010001A4
S2841F9280000100010001000000C80000FFFFFFFF00000000000000000000000000000000000000000000000000000000FFFFFFFF000493E000010001038403E800002710000A000006B806B806B806B806B806B806B806B806B806B800000000000000000000000000000000000000000000000000000000000000000000000000000000EF
S2841F930003E803E803E803E803E803E803E803E803E803E80000000000000000000000000000000000000000FFFFFFFF0064001403E8FFFFFFFFFFFF0000000000010001038403E800002710000A000007080708070807080708070807080708070807080000000000000000000000000000000000000000000000000000000000000000F7
S2841F9380000000000000000003E803E803E803E803E803E803E803E803E803E80000000000000000000000000000000000000000FFFFFFFF0064001403E8FFFFFFFFFFFF00000000000100010000000000000000000A00000000000000000000000000000000000000000000000000000000000000000000000000000000000000000000B6
S2841F940000000000000000000000000000000000000A000A000A000A000A000A000A000A000A000A0000000000000000000000000000000000000000FFFFFFFF0064001403E800640000000006400000076C000000000000FFFFFFFFFFFFFFFFFFFFFFFFFFFFFFFFFFFFFFFFFFFFFFFFFFFFFFFFFFFFFFFFFFFFFFFFFFFFFFFFFFFFFFFF14
S2841F9480000000000000000000000000000000000000000000000000000000000000000000000000000000000000000000000000000000000000000000000000000000000000000000000000000000000000000000000000000000000000000000000000000000000000000000000000000000000000000000000000000000000000000048
S2841F9500FFFFFFFFFFFFFFFFFFFFFFFFFFFFFFFFFFFFFFFFFFFFFFFFFFFFFFFFFFFFFFFF000000000000000000000000000000000000000000000000000000000000000000000000000000000000000000000000FFFFFFFFFFFFFFFFFFFFFFFFFFFFFFFFFFFFFFFFFFFFFFFFFFFFFFFFFFFFFFFF0000000000000000000000000000000007
S2841F95800000000000000000000000000000000000000000000000000000000000000000000000000000000000000000000000000000000000000000000000000000000000000000000000000BB8000000080006000000000000000000960000012C00000096000002EE000005DC000002EE0000000000000000000000000000000000005C
S2841F96000000000000000000000000000000000000000000FFFFFFFFFFFFFFFFFFFFFFFFFFFFFFFFFFFFFFFFFFFFFFFFFFFFFFFFFFFFFFFFFFFFFFFFFFFFFFFFFFFFFFFFFFFFFFFFFFFFFFFFFFFFFFFFFFFFFFFFFFFFFFFFFFFFFFFFFFFFFFFFFFFFFFFFFFFFFFFFFFFFFFFFFFFFFFFFFFFFFFFFFFFFFFFFFFFFFFFFFFFFFFFFFFFFFFFF32
